:100000000C942A000C9447000C9447000C94470071
:100010000C9447000C9447000C9447000C94470044
:100020000C9447000C9447000C9447000C94470034
:100030000C9447000C9447000C9447000C94470024
:100040000C9447000C9447000C9447000C94470014
:100050000C94470011241FBECFE5D4E0DEBFCDBF16
:1000600011E0A8E6B1E001C01D92A437B107E1F7A5
:1000700011E0A0E6B0E0EEE5F3E102C005900D92DC
:10008000A836B107D9F70E94B0020C94AD090C94C0
:10009000000087B38F6087BB88B3807F88BB81B344
:1000A000806381BB82B3806382BB08956817790740
:1000B0000CF4862F08959C0197FF03C0309521957D
:1000C0003F4FC901089587B38F6087BB88B3807F96
:1000D00088BB81B3806381BB82B3806382BB1ABA61
:1000E0001BBA84B3876F84BB85B3807885BB0895C2
:1000F00098B3907F8F70892B88BB089588B3807FD9
:10010000866088BB089588B3807F896088BB089526
:1001100088B3807F856088BB089588B3807F8A60BC
:1001200088BB089588B3807F846088BB089588B3B6
:10013000807F826088BB08954F925F926F927F921A
:100140008F929F92AF92BF92CF92DF92EF92FF92E7
:100150000F931F93DF93CF9300D000D0CDB7DEB7BE
:1001600069837A838B839C8329013A01B8018827AC
:1001700077FD8095982F0E94BB064B015C01C3015F
:10018000B201A70196010E943105A50194010E94C8
:1001900004050E945B037B018C0169817A818B815C
:1001A0009C8120E030E040E050E00E942B061816D1
:1001B00004F5C301B201A50194010E9404059B014D
:1001C000AC0169817A818B819C810E948B06882396
:1001D0003CF48E2D90E060E070E00E94970029C012
:1001E0008E2D90E066277727681B790B0E948D0083
:1001F00020C0C301B201A50194010E9404059B0126
:10020000AC01505869817A818B819C810E942B06B8
:1002100018163CF480E090E06E2D70E00E94920091
:1002200008C06E2D70E088279927861B970B0E94C7
:1002300088000F900F900F900F90CF91DF911F913A
:100240000F91FF90EF90DF90CF90BF90AF909F9075
:100250008F907F906F905F904F90089588B3807FCC
:10026000816088BB089588B3807F886088BB0895CB
:1002700088B3807F88BB089588B38F6088BB08955A
:1002800084B3876F84BB85B3807885BB08958AEF7C
:1002900090E0FC013197F1F7A898A99840E345BB9D
:1002A000AA9A22EE34E0F9013197F1F7AA98FC01FD
:1002B0003197F1F7A898A99845BBAA9AF901319707
:1002C000F1F7AA98FC013197F1F7A898A99845BBD6
:1002D000AA9AF9013197F1F7AA980197F1F7A8982E
:1002E000A99880E285BBAA9AC9010197F1F7AA985B
:1002F000089595B39F7095BB25B3982F907F922B4F
:1003000095BBA898A998AA9A22EE34E0F9013197F2
:10031000F1F7AA9895B39F7095BB95B38295807FAE
:10032000982B95BBA898A998AA9AC9010197F1F7AB
:10033000AA9808958AEF90E00197F1F788E20E9469
:10034000790181E00E94790186E00E9479018EE0C6
:100350000E94790180E80E9479010895F8940E9432
:10036000630016B880E287B980E888B986E886B964
:100370000E949A010E9447017894089595B39F7056
:1003800095BB25B3982F907F922B95BBA89AA998DF
:10039000AA9A22EE34E0F9013197F1F7AA9895B3C1
:1003A0009F7095BB95B38295807F982B95BBA89A3B
:1003B000A998AA9AC9010197F1F7AA98089580E827
:1003C0000E9479010895CF93DF93EC0103C00E944E
:1003D000BE01219688818823D1F7DF91CF910895BE
:1003E000823069F0833018F48130A9F405C083307D
:1003F00049F0843081F40BC0862F815805C0862FC8
:10040000815402C0862F8D560E9479010895862F4F
:100410008D520E94790108950F931F93CF93DF931C
:100420008A01E901882311F0662319F40E94DF0193
:1004300002C00E94F001C530D10571F4C80160E12D
:1004400077E20E946209CB01C09690936901809384
:1004500068010E94BE0105C0C430D10511F080E0E2
:1004600016C0C80168EE73E00E946209CB01609378
:100470006A0190936B016AE070E00E946209C09685
:1004800090937301809372010E94BE0181E0C3309A
:10049000D10521F0813011F080E016C0C80164E67A
:1004A00070E00E946209CB0160936A0190936B0136
:1004B0006AE070E00E946209C09690936F01809399
:1004C0006E010E94BE0181E0C230D10521F0813071
:1004D00011F080E016C0C8016AE070E00E94620975
:1004E000CB0160936A0190936B016AE070E00E9417
:1004F0006209C09690936D0180936C010E94BE01C9
:1005000081E0C130D10511F0813061F4C8016AE0A9
:1005100070E00E946209C09690937101809370010F
:100520000E94BE0126971CF085E40E94BE01DF9167
:10053000CF911F910F9108951ABA1BBA089516B85A
:1005400080E287B980E888B986E886B9089587701F
:10055000806287B9369A349BFECF85B1349A08956C
:100560002F923F924F925F926F927F928F929F92C3
:10057000AF92BF92CF92DF92EF92FF920F931F93B1
:10058000CF93DF930E94AE018824992423E227B9F8
:10059000369A349BFECF85B1349A35E237B9369A14
:1005A000349BFECF65B1349A94E297B9369A349B66
:1005B000FECF95B1349AC62FD0E0C81BD109BE0139
:1005C000882777FD8095982F0E94BB065B016C0100
:1005D00020E030E040E051E40E9431057B018C01D5
:1005E000CE018819990927E330E0829FB001839FEB
:1005F000700D929F700D1124882777FD8095982F9C
:100600000E94BB069B01AC01C801B7010E94040512
:100610001B012C011C161D065CF460E070E080E0FC
:1006200093E4A20191010E94D3047B018C010CC0D0
:1006300020E030E040E053E40E9404057B018C019F
:1006400017FB109517F910953701480197FA909408
:1006500097F89094C601B501A40193010E942B065E
:10066000181644F4C601B501A80197010E948B0633
:100670008823DCF0C601B501A40193010E948B061A
:1006800087FD08C0C601B501A80197010E942B068D
:1006900018165CF4C601B501A80197010AE110E043
:1006A000720161010E949C0004C088B3807F866053
:1006B00088BB4E016BCFEF92FF920F931F937B018C
:1006C0008C0120E030E040E05FE40E945B0688237C
:1006D0008CF0C801B70120E030E040E05FE40E9408
:1006E000D3040E9419079B01AC01205030404040C8
:1006F000504806C0C801B7010E9419079B01AC0110
:10070000B901CA011F910F91FF90EF900895A0E0E9
:10071000B0E0EDE8F3E00C947609DC012B01FA017E
:100720009C91923008F439C1EB018881823008F441
:1007300033C1943069F4843009F02FC111969C9133
:1007400011978981981709F428C1A0E6B0E025C166
:10075000843009F421C18230A9F4923009F01DC11E
:100760009A01AD0188E0EA010990AE01E901099220
:100770009E018150C1F7E201898111969C918923E4
:10078000818308C1923009F407C112962D903C90E4
:100790001397EB018A819B811496AD90BD90CD900B
:1007A000DC901797EC80FD800E811F819101281B42
:1007B000390BB90137FF04C066277727621B730B1B
:1007C000603271050CF061C0121613066CF537012A
:1007D0004801062E04C096948794779467940A94EF
:1007E000D2F721E030E040E050E004C0220F331F98
:1007F000441F551F6A95D2F7215030404040504069
:100800002E213F214023512321153105410551055A
:1008100021F021E030E040E050E079018A01E62853
:10082000F728082919293CC0232BD1F1260E371EA1
:1008300035014601062E04C09694879477946794F8
:100840000A94D2F721E030E040E050E004C0220FEB
:10085000331F441F551F6A95D2F721503040404046
:1008600050402A213B214C215D21211531054105B4
:10087000510521F021E030E040E050E059016A01EB
:10088000A628B728C828D9280BC0821593052CF0B4
:100890001C01AA24BB24650103C0EE24FF248701A8
:1008A00011969C91D20111968C91981709F445C02C
:1008B000992339F0A80197012A193B094C095D09D0
:1008C00006C0A60195012E193F09400B510B57FD9B
:1008D00008C0118233822282248335834683578362
:1008E0001DC081E081833382228288279927DC0121
:1008F000821B930BA40BB50B84839583A683B783CC
:100900000DC0220F331F441F551F24833583468398
:1009100057838281938101979383828324813581D8
:1009200046815781DA01C9010197A109B1098F5F99
:100930009F4FAF4FBF4328F30BC091833382228276
:10094000EA0CFB1C0C1D1D1DE482F5820683178337
:1009500083E08083248135814681578157FF1AC007
:10096000C901AA2797FDA095BA2F81709070A07039
:10097000B0705695479537952795822B932BA42BCE
:10098000B52B84839583A683B78382819381019657
:1009900093838283DF0101C0D201CD01CDB7DEB7E1
:1009A000E2E10C949209A0E2B0E0E9EDF4E00C94ED
:1009B000820969837A838B839C832D833E834F8353
:1009C0005887E9E0EE2EF12CEC0EFD1ECE010196CB
:1009D000B7010E9491088E010F5E1F4FCE01059650
:1009E000B8010E9491088A8991E089278A8BC70102
:1009F000B801AE01475E5F4F0E9487030E94BC07AB
:100A0000A096E6E00C949E09A0E2B0E0EAE0F5E0F2
:100A10000C94820969837A838B839C832D833E8324
:100A20004F835887F9E0EF2EF12CEC0EFD1ECE011E
:100A30000196B7010E9491088E010F5E1F4FCE01F3
:100A40000596B8010E949108C701B801AE01475E42
:100A50005F4F0E9487030E94BC07A096E6E00C94BB
:100A60009E09A0E2B0E0E7E3F5E00C947609698323
:100A70007A838B839C832D833E834F835887CE015B
:100A80000196BE01675F7F4F0E949108CE010596D7
:100A9000BE016F5E7F4F0E9491089985923088F069
:100AA00089898230C8F0943019F4823051F404C03E
:100AB000843029F4923081F480E690E0C6C0923010
:100AC00049F420E09A858A89981321E02A87CE018B
:100AD0000996BBC0823049F420E09A858A89981330
:100AE00021E02A8BCE014196B0C02D843E844F84F4
:100AF00058886D887E888F88988CEE24FF24870123
:100B0000AA24BB24650140E050E060E070E0E0E032
:100B1000F0E0C10181709070892BE9F0E60CF71CC0
:100B2000081D191D9A01AB012A0D3B1D4C1D5D1DB1
:100B300080E090E0A0E0B0E0E614F70408051905B5
:100B400020F481E090E0A0E0B0E0BA01A901480FF4
:100B5000591F6A1F7B1FAA0CBB1CCC1CDD1C97FEF7
:100B600008C081E090E0A0E0B0E0A82AB92ACA2A33
:100B7000DB2A3196E032F10549F0660C771C881CBF
:100B8000991C5694479437942794C3CFFA85EA89E1
:100B90002B893C898B859C85280F391F2E5F3F4F01
:100BA00017C0CA0181709070892B61F01695079566
:100BB000F794E79480E090E0A0E0B0E8E82AF92A12
:100BC0000A2B1B2B76956795579547952F5F3F4FBF
:100BD00077FDE7CF0CC0440F551F661F771F17FD29
:100BE0004160EE0CFF1C001F111F215030404030AF
:100BF00090E0590790E0690790E4790760F32B8F44
:100C00003C8FDB01CA018F779070A070B070803488
:100C10009105A105B10561F447FD0AC0E114F10495
:100C20000105110529F0405C5F4F6F4F7F4F407801
:100C30001A8EFE1711F081E08A8F4D8F5E8F6F8FB5
:100C400078A383E0898FCE0149960E94BC07A096C5
:100C5000E2E10C949209A8E1B0E0E1E3F6E00C9443
:100C6000820969837A838B839C832D833E834F83A0
:100C7000588789E0E82EF12CEC0EFD1ECE0101967E
:100C8000B7010E9491088E010F5E1F4FCE0105969D
:100C9000B8010E9491088985823040F089898230AC
:100CA00028F0C701B8010E94090901C08FEF6896BA
:100CB000E6E00C949E09A8E1B0E0E1E6F6E00C94D1
:100CC000820969837A838B839C832D833E834F8340
:100CD000588789E0E82EF12CEC0EFD1ECE0101961E
:100CE000B7010E9491088E010F5E1F4FCE0105963D
:100CF000B8010E9491088985823040F0898982304C
:100D000028F0C701B8010E94090901C08FEF689659
:100D1000E6E00C949E09A8E1B0E0E1E9F6E00C946D
:100D2000820969837A838B839C832D833E834F83DF
:100D3000588789E0E82EF12CEC0EFD1ECE010196BD
:100D4000B7010E9491088E010F5E1F4FCE010596DC
:100D5000B8010E9491088985823040F089898230EB
:100D600028F0C701B8010E94090901C081E0689616
:100D7000E6E00C949E09A8E0B0E0E1ECF6E00C940B
:100D80007F099B01AC0183E08983DA01C9018827CF
:100D9000B7FD83959927AA27BB27B82E21153105C2
:100DA0004105510519F482E089833AC08823A9F0EE
:100DB000203080E0380780E0480780E8580729F4B1
:100DC00060E070E080E09FEC30C0EE24FF248701FB
:100DD000E21AF30A040B150B02C079018A018EE1B5
:100DE000C82ED12CDC82CB82ED82FE820F83188745
:100DF000C801B7010E946D0701971816190684F4FF
:100E0000082E04C0EE0CFF1C001F111F0A94D2F71D
:100E1000ED82FE820F831887C81AD90ADC82CB8242
:100E2000BA82CE0101960E94BC072896E9E00C9494
:100E30009B09ACE0B0E0EFE1F7E00C948609698330
:100E40007A838B839C83CE010196BE016B5F7F4FBB
:100E50000E9491088D81823061F1823050F184309E
:100E600021F48E81882351F12EC02F81388537FDE2
:100E700020C06E812F3131051CF06623F9F023C0AC
:100E80008EE190E0821B930B29853A854B855C852A
:100E900004C056954795379527958A95D2F76623CE
:100EA000B1F050954095309521953F4F4F4F5F4F92
:100EB0000EC020E030E040E050E009C02FEF3FEFEF
:100EC0004FEF5FE704C020E030E040E050E8B901B8
:100ED000CA012C96E2E00C94A209EF92FF920F93C4
:100EE0001F937B018C0180E0E81680E0F80681E02A
:100EF000080780E0180788F48FEFE816F104010571
:100F0000110531F028F088E090E0A0E0B0E017C0D3
:100F100080E090E0A0E0B0E012C080E0E81680E061
:100F2000F80680E0080781E0180728F088E190E0E3
:100F3000A0E0B0E004C080E190E0A0E0B0E020E2FA
:100F400030E040E050E0281B390B4A0B5B0B04C03B
:100F500016950795F794E7948A95D2F7F701E85923
:100F6000FF4F8081281B310941095109C9011F9197
:100F70000F91FF90EF900895DF92EF92FF920F9301
:100F80001F93FC01E480F58006811781D180808168
:100F9000823048F480E090E0A0E1B0E0E82AF92A4D
:100FA0000A2B1B2BA5C0843009F49FC0823021F48A
:100FB000EE24FF24870105C0E114F10401051105A9
:100FC00019F4E0E0F0E096C0628173819FEF62382F
:100FD00079070CF05BC022E83FEF261B370B2A3164
:100FE00031052CF020E030E040E050E02AC0B801AC
:100FF000A701022E04C076956795579547950A94E8
:10100000D2F781E090E0A0E0B0E004C0880F991F23
:10101000AA1FBB1F2A95D2F70197A109B1098E21FA
:101020009F21A023B1230097A105B10521F081E004
:1010300090E0A0E0B0E09A01AB01282B392B4A2BBD
:101040005B2BDA01C9018F779070A070B07080348B
:101050009105A105B10539F427FF09C0205C3F4F78
:101060004F4F5F4F04C0215C3F4F4F4F5F4FE0E059
:10107000F0E02030A0E03A07A0E04A07A0E45A07D9
:1010800010F0E1E0F0E079018A0127C060387105D5
:1010900064F5FB01E158FF4FD801C7018F779070CD
:1010A000A070B07080349105A105B10539F4E7FE58
:1010B0000DC080E490E0A0E0B0E004C08FE390E0D9
:1010C000A0E0B0E0E80EF91E0A1F1B1F17FF05C0C5
:1010D00016950795F794E794319687E0169507954E
:1010E000F794E7948A95D1F705C0EE24FF24870191
:1010F000EFEFF0E06E2F679566276795902F9F774B
:10110000D794DD24D7948E2F8695492F462B582FC0
:101110005D29B701CA011F910F91FF90EF90DF90F9
:101120000895FC01DB01408151812281622F6F779C
:1011300070E0221F2227221F9381892F880F822B84
:10114000282F30E0991F9927991F11969C9311978A
:1011500021153105A9F5411551056105710511F4F8
:1011600082E037C082E89FEF13969C938E9312978C
:101170009A01AB0167E0220F331F441F551F6A9588
:10118000D1F783E08C930DC0220F331F441F551FEE
:1011900012968D919C911397019713969C938E9321
:1011A0001297203080E0380780E0480780E4580735
:1011B00058F314962D933D934D935C931797089590
:1011C0002F3F310579F4411551056105710519F479
:1011D00084E08C93089564FF03C081E08C9312C077
:1011E0001C9210C02F57304013963C932E931297A9
:1011F00083E08C9387E0440F551F661F771F8A9505
:10120000D1F7706414964D935D936D937C9317970B
:1012100008951F93DC01FB019C91923008F447C0B4
:101220008081823008F443C0943051F411961C91AF
:10123000843099F58181682F70E0611B71093FC08E
:10124000843021F0923031F48230B9F181818823E9
:1012500089F12DC011961C9111978230F1F0818196
:101260001817D9F412962D913C911397828193818E
:101270008217930794F028173907BCF014968D91C4
:101280009D910D90BC91A02D24813581468157817F
:10129000281739074A075B0718F4112341F00AC0E1
:1012A00082179307A407B50740F4112319F061E0F2
:1012B00070E005C06FEF7FEF02C060E070E0CB012F
:1012C0001F910895AA1BBB1B51E107C0AA1FBB1F9A
:1012D000A617B70710F0A61BB70B881F991F5A95C2
:1012E000A9F780959095BC01CD0108952F923F926A
:1012F0004F925F926F927F928F929F92AF92BF9226
:10130000CF92DF92EF92FF920F931F93CF93DF93D1
:10131000CDB7DEB7CA1BDB0B0FB6F894DEBF0FBE2E
:10132000CDBF09942A88398848885F846E847D847B
:101330008C849B84AA84B984C884DF80EE80FD807D
:101340000C811B81AA81B981CE0FD11D0FB6F894F3
:0E135000DEBF0FBECDBFED010895F894FFCFB4
:10135E00000000000000000000010202030303036E
:10136E000404040404040404050505050505050527
:10137E000505050505050505060606060606060607
:10138E0006060606060606060606060606060606EF
:10139E0006060606060606060707070707070707D7
:1013AE0007070707070707070707070707070707BF
:1013BE0007070707070707070707070707070707AF
:1013CE00070707070707070707070707070707079F
:1013DE000707070707070707080808080808080887
:1013EE00080808080808080808080808080808086F
:1013FE00080808080808080808080808080808085F
:10140E00080808080808080808080808080808084E
:10141E00080808080808080808080808080808083E
:10142E00080808080808080808080808080808082E
:10143E00080808080808080808080808080808081E
:10144E00080808080808080808080808080808080E
:08145E00080808080808080846
:00000001FF
